{
  "contractName": "HomeToken",
  "abi": [
    {
      "inputs": [
        {
          "internalType": "uint256",
          "name": "initialSupply",
          "type": "uint256"
        }
      ],
      "stateMutability": "nonpayable",
      "type": "constructor"
    },
    {
      "anonymous": false,
      "inputs": [
        {
          "indexed": true,
          "internalType": "address",
          "name": "owner",
          "type": "address"
        },
        {
          "indexed": true,
          "internalType": "address",
          "name": "spender",
          "type": "address"
        },
        {
          "indexed": false,
          "internalType": "uint256",
          "name": "value",
          "type": "uint256"
        }
      ],
      "name": "Approval",
      "type": "event"
    },
    {
      "anonymous": false,
      "inputs": [
        {
          "indexed": false,
          "internalType": "address",
          "name": "account",
          "type": "address"
        }
      ],
      "name": "Paused",
      "type": "event"
    },
    {
      "anonymous": false,
      "inputs": [
        {
          "indexed": true,
          "internalType": "bytes32",
          "name": "role",
          "type": "bytes32"
        },
        {
          "indexed": true,
          "internalType": "bytes32",
          "name": "previousAdminRole",
          "type": "bytes32"
        },
        {
          "indexed": true,
          "internalType": "bytes32",
          "name": "newAdminRole",
          "type": "bytes32"
        }
      ],
      "name": "RoleAdminChanged",
      "type": "event"
    },
    {
      "anonymous": false,
      "inputs": [
        {
          "indexed": true,
          "internalType": "bytes32",
          "name": "role",
          "type": "bytes32"
        },
        {
          "indexed": true,
          "internalType": "address",
          "name": "account",
          "type": "address"
        },
        {
          "indexed": true,
          "internalType": "address",
          "name": "sender",
          "type": "address"
        }
      ],
      "name": "RoleGranted",
      "type": "event"
    },
    {
      "anonymous": false,
      "inputs": [
        {
          "indexed": true,
          "internalType": "bytes32",
          "name": "role",
          "type": "bytes32"
        },
        {
          "indexed": true,
          "internalType": "address",
          "name": "account",
          "type": "address"
        },
        {
          "indexed": true,
          "internalType": "address",
          "name": "sender",
          "type": "address"
        }
      ],
      "name": "RoleRevoked",
      "type": "event"
    },
    {
      "anonymous": false,
      "inputs": [
        {
          "indexed": true,
          "internalType": "address",
          "name": "from",
          "type": "address"
        },
        {
          "indexed": true,
          "internalType": "address",
          "name": "to",
          "type": "address"
        },
        {
          "indexed": false,
          "internalType": "uint256",
          "name": "value",
          "type": "uint256"
        }
      ],
      "name": "Transfer",
      "type": "event"
    },
    {
      "anonymous": false,
      "inputs": [
        {
          "indexed": false,
          "internalType": "address",
          "name": "account",
          "type": "address"
        }
      ],
      "name": "Unpaused",
      "type": "event"
    },
    {
      "inputs": [],
      "name": "DEFAULT_ADMIN_ROLE",
      "outputs": [
        {
          "internalType": "bytes32",
          "name": "",
          "type": "bytes32"
        }
      ],
      "stateMutability": "view",
      "type": "function",
      "constant": true
    },
    {
      "inputs": [],
      "name": "MINTER_ROLE",
      "outputs": [
        {
          "internalType": "bytes32",
          "name": "",
          "type": "bytes32"
        }
      ],
      "stateMutability": "view",
      "type": "function",
      "constant": true
    },
    {
      "inputs": [],
      "name": "PAUSER_ROLE",
      "outputs": [
        {
          "internalType": "bytes32",
          "name": "",
          "type": "bytes32"
        }
      ],
      "stateMutability": "view",
      "type": "function",
      "constant": true
    },
    {
      "inputs": [
        {
          "internalType": "address",
          "name": "owner",
          "type": "address"
        },
        {
          "internalType": "address",
          "name": "spender",
          "type": "address"
        }
      ],
      "name": "allowance",
      "outputs": [
        {
          "internalType": "uint256",
          "name": "",
          "type": "uint256"
        }
      ],
      "stateMutability": "view",
      "type": "function",
      "constant": true
    },
    {
      "inputs": [
        {
          "internalType": "address",
          "name": "spender",
          "type": "address"
        },
        {
          "internalType": "uint256",
          "name": "amount",
          "type": "uint256"
        }
      ],
      "name": "approve",
      "outputs": [
        {
          "internalType": "bool",
          "name": "",
          "type": "bool"
        }
      ],
      "stateMutability": "nonpayable",
      "type": "function"
    },
    {
      "inputs": [
        {
          "internalType": "address",
          "name": "account",
          "type": "address"
        }
      ],
      "name": "balanceOf",
      "outputs": [
        {
          "internalType": "uint256",
          "name": "",
          "type": "uint256"
        }
      ],
      "stateMutability": "view",
      "type": "function",
      "constant": true
    },
    {
      "inputs": [
        {
          "internalType": "uint256",
          "name": "amount",
          "type": "uint256"
        }
      ],
      "name": "burn",
      "outputs": [],
      "stateMutability": "nonpayable",
      "type": "function"
    },
    {
      "inputs": [
        {
          "internalType": "address",
          "name": "account",
          "type": "address"
        },
        {
          "internalType": "uint256",
          "name": "amount",
          "type": "uint256"
        }
      ],
      "name": "burnFrom",
      "outputs": [],
      "stateMutability": "nonpayable",
      "type": "function"
    },
    {
      "inputs": [],
      "name": "decimals",
      "outputs": [
        {
          "internalType": "uint8",
          "name": "",
          "type": "uint8"
        }
      ],
      "stateMutability": "view",
      "type": "function",
      "constant": true
    },
    {
      "inputs": [
        {
          "internalType": "address",
          "name": "spender",
          "type": "address"
        },
        {
          "internalType": "uint256",
          "name": "subtractedValue",
          "type": "uint256"
        }
      ],
      "name": "decreaseAllowance",
      "outputs": [
        {
          "internalType": "bool",
          "name": "",
          "type": "bool"
        }
      ],
      "stateMutability": "nonpayable",
      "type": "function"
    },
    {
      "inputs": [
        {
          "internalType": "bytes32",
          "name": "role",
          "type": "bytes32"
        }
      ],
      "name": "getRoleAdmin",
      "outputs": [
        {
          "internalType": "bytes32",
          "name": "",
          "type": "bytes32"
        }
      ],
      "stateMutability": "view",
      "type": "function",
      "constant": true
    },
    {
      "inputs": [
        {
          "internalType": "bytes32",
          "name": "role",
          "type": "bytes32"
        },
        {
          "internalType": "uint256",
          "name": "index",
          "type": "uint256"
        }
      ],
      "name": "getRoleMember",
      "outputs": [
        {
          "internalType": "address",
          "name": "",
          "type": "address"
        }
      ],
      "stateMutability": "view",
      "type": "function",
      "constant": true
    },
    {
      "inputs": [
        {
          "internalType": "bytes32",
          "name": "role",
          "type": "bytes32"
        }
      ],
      "name": "getRoleMemberCount",
      "outputs": [
        {
          "internalType": "uint256",
          "name": "",
          "type": "uint256"
        }
      ],
      "stateMutability": "view",
      "type": "function",
      "constant": true
    },
    {
      "inputs": [
        {
          "internalType": "bytes32",
          "name": "role",
          "type": "bytes32"
        },
        {
          "internalType": "address",
          "name": "account",
          "type": "address"
        }
      ],
      "name": "grantRole",
      "outputs": [],
      "stateMutability": "nonpayable",
      "type": "function"
    },
    {
      "inputs": [
        {
          "internalType": "bytes32",
          "name": "role",
          "type": "bytes32"
        },
        {
          "internalType": "address",
          "name": "account",
          "type": "address"
        }
      ],
      "name": "hasRole",
      "outputs": [
        {
          "internalType": "bool",
          "name": "",
          "type": "bool"
        }
      ],
      "stateMutability": "view",
      "type": "function",
      "constant": true
    },
    {
      "inputs": [
        {
          "internalType": "address",
          "name": "spender",
          "type": "address"
        },
        {
          "internalType": "uint256",
          "name": "addedValue",
          "type": "uint256"
        }
      ],
      "name": "increaseAllowance",
      "outputs": [
        {
          "internalType": "bool",
          "name": "",
          "type": "bool"
        }
      ],
      "stateMutability": "nonpayable",
      "type": "function"
    },
    {
      "inputs": [
        {
          "internalType": "address",
          "name": "to",
          "type": "address"
        },
        {
          "internalType": "uint256",
          "name": "amount",
          "type": "uint256"
        }
      ],
      "name": "mint",
      "outputs": [],
      "stateMutability": "nonpayable",
      "type": "function"
    },
    {
      "inputs": [],
      "name": "name",
      "outputs": [
        {
          "internalType": "string",
          "name": "",
          "type": "string"
        }
      ],
      "stateMutability": "view",
      "type": "function",
      "constant": true
    },
    {
      "inputs": [],
      "name": "pause",
      "outputs": [],
      "stateMutability": "nonpayable",
      "type": "function"
    },
    {
      "inputs": [],
      "name": "paused",
      "outputs": [
        {
          "internalType": "bool",
          "name": "",
          "type": "bool"
        }
      ],
      "stateMutability": "view",
      "type": "function",
      "constant": true
    },
    {
      "inputs": [
        {
          "internalType": "bytes32",
          "name": "role",
          "type": "bytes32"
        },
        {
          "internalType": "address",
          "name": "account",
          "type": "address"
        }
      ],
      "name": "renounceRole",
      "outputs": [],
      "stateMutability": "nonpayable",
      "type": "function"
    },
    {
      "inputs": [
        {
          "internalType": "bytes32",
          "name": "role",
          "type": "bytes32"
        },
        {
          "internalType": "address",
          "name": "account",
          "type": "address"
        }
      ],
      "name": "revokeRole",
      "outputs": [],
      "stateMutability": "nonpayable",
      "type": "function"
    },
    {
      "inputs": [
        {
          "internalType": "bytes4",
          "name": "interfaceId",
          "type": "bytes4"
        }
      ],
      "name": "supportsInterface",
      "outputs": [
        {
          "internalType": "bool",
          "name": "",
          "type": "bool"
        }
      ],
      "stateMutability": "view",
      "type": "function",
      "constant": true
    },
    {
      "inputs": [],
      "name": "symbol",
      "outputs": [
        {
          "internalType": "string",
          "name": "",
          "type": "string"
        }
      ],
      "stateMutability": "view",
      "type": "function",
      "constant": true
    },
    {
      "inputs": [],
      "name": "totalSupply",
      "outputs": [
        {
          "internalType": "uint256",
          "name": "",
          "type": "uint256"
        }
      ],
      "stateMutability": "view",
      "type": "function",
      "constant": true
    },
    {
      "inputs": [
        {
          "internalType": "address",
          "name": "to",
          "type": "address"
        },
        {
          "internalType": "uint256",
          "name": "amount",
          "type": "uint256"
        }
      ],
      "name": "transfer",
      "outputs": [
        {
          "internalType": "bool",
          "name": "",
          "type": "bool"
        }
      ],
      "stateMutability": "nonpayable",
      "type": "function"
    },
    {
      "inputs": [
        {
          "internalType": "address",
          "name": "from",
          "type": "address"
        },
        {
          "internalType": "address",
          "name": "to",
          "type": "address"
        },
        {
          "internalType": "uint256",
          "name": "amount",
          "type": "uint256"
        }
      ],
      "name": "transferFrom",
      "outputs": [
        {
          "internalType": "bool",
          "name": "",
          "type": "bool"
        }
      ],
      "stateMutability": "nonpayable",
      "type": "function"
    },
    {
      "inputs": [],
      "name": "unpause",
      "outputs": [],
      "stateMutability": "nonpayable",
      "type": "function"
    },
    {
      "inputs": [
        {
          "internalType": "address",
          "name": "minter",
          "type": "address"
        }
      ],
      "name": "setupMinter",
      "outputs": [],
      "stateMutability": "nonpayable",
      "type": "function"
    }
  ],
  "bytecode": "0x60806040523480156200001157600080fd5b5060405162003ccd38038062003ccd8339818101604052810190620000379190620007a4565b6040518060400160405280600a81526020017f486f6d6520546f6b656e000000000000000000000000000000000000000000008152506040518060400160405280600481526020017f484f4d450000000000000000000000000000000000000000000000000000000081525081818160059080519060200190620000bd929190620006b4565b508060069080519060200190620000d6929190620006b4565b5050506000600760006101000a81548160ff021916908315150217905550620001186000801b6200010c620001f660201b60201c565b620001fe60201b60201c565b620001597f9f2df0fed2c77648de5860a4cc508cd0818c85b8b8a1ab4ceeef8d981c8956a66200014d620001f660201b60201c565b620001fe60201b60201c565b6200019a7f65d7a28e3265b37a6474929f336521b332c1681b933f6cb9f3376673440d862a6200018e620001f660201b60201c565b620001fe60201b60201c565b505033600760016101000a81548173ffffffffffffffffffffffffffffffffffffffff021916908373ffffffffffffffffffffffffffffffffffffffff160217905550620001ef33826200021460201b60201c565b5062000a10565b600033905090565b6200021082826200038e60201b60201c565b5050565b600073ffffffffffffffffffffffffffffffffffffffff168273ffffffffffffffffffffffffffffffffffffffff16141562000287576040517f08c379a00000000000000000000000000000000000000000000000000000000081526004016200027e9062000837565b60405180910390fd5b6200029b60008383620003d660201b60201c565b8060046000828254620002af919062000888565b9250508190555080600260008473ffffffffffffffffffffffffffffffffffffffff1673ffffffffffffffffffffffffffffffffffffffff168152602001908152602001600020600082825462000307919062000888565b925050819055508173ffffffffffffffffffffffffffffffffffffffff16600073ffffffffffffffffffffffffffffffffffffffff167fddf252ad1be2c89b69c2b068fc378daa952ba7f163c4a11628f55a4df523b3ef836040516200036e9190620008f6565b60405180910390a36200038a60008383620003f360201b60201c565b5050565b620003a58282620003f860201b62000eaa1760201c565b620003d18160016000858152602001908152602001600020620004e960201b62000f8a1790919060201c565b505050565b620003ee8383836200052160201b62000fba1760201c565b505050565b505050565b6200040a82826200059160201b60201c565b620004e557600160008084815260200190815260200160002060000160008373ffffffffffffffffffffffffffffffffffffffff1673ffffffffffffffffffffffffffffffffffffffff16815260200190815260200160002060006101000a81548160ff0219169083151502179055506200048a620001f660201b60201c565b73ffffffffffffffffffffffffffffffffffffffff168173ffffffffffffffffffffffffffffffffffffffff16837f2f8788117e7eff1d82e926ec794901d17c78024a50270940304540a733656f0d60405160405180910390a45b5050565b600062000519836000018373ffffffffffffffffffffffffffffffffffffffff1660001b620005fb60201b60201c565b905092915050565b620005398383836200067560201b620010121760201c565b620005496200067a60201b60201c565b156200058c576040517f08c379a0000000000000000000000000000000000000000000000000000000008152600401620005839062000989565b60405180910390fd5b505050565b600080600084815260200190815260200160002060000160008373ffffffffffffffffffffffffffffffffffffffff1673ffffffffffffffffffffffffffffffffffffffff16815260200190815260200160002060009054906101000a900460ff16905092915050565b60006200060f83836200069160201b60201c565b6200066a5782600001829080600181540180825580915050600190039060005260206000200160009091909190915055826000018054905083600101600084815260200190815260200160002081905550600190506200066f565b600090505b92915050565b505050565b6000600760009054906101000a900460ff16905090565b600080836001016000848152602001908152602001600020541415905092915050565b828054620006c290620009da565b90600052602060002090601f016020900481019282620006e6576000855562000732565b82601f106200070157805160ff191683800117855562000732565b8280016001018555821562000732579182015b828111156200073157825182559160200191906001019062000714565b5b50905062000741919062000745565b5090565b5b808211156200076057600081600090555060010162000746565b5090565b600080fd5b6000819050919050565b6200077e8162000769565b81146200078a57600080fd5b50565b6000815190506200079e8162000773565b92915050565b600060208284031215620007bd57620007bc62000764565b5b6000620007cd848285016200078d565b91505092915050565b600082825260208201905092915050565b7f45524332303a206d696e7420746f20746865207a65726f206164647265737300600082015250565b60006200081f601f83620007d6565b91506200082c82620007e7565b602082019050919050565b60006020820190508181036000830152620008528162000810565b9050919050565b7f4e487b7100000000000000000000000000000000000000000000000000000000600052601160045260246000fd5b6000620008958262000769565b9150620008a28362000769565b9250827fffffffffffffffffffffffffffffffffffffffffffffffffffffffffffffffff03821115620008da57620008d962000859565b5b828201905092915050565b620008f08162000769565b82525050565b60006020820190506200090d6000830184620008e5565b92915050565b7f45524332305061757361626c653a20746f6b656e207472616e7366657220776860008201527f696c652070617573656400000000000000000000000000000000000000000000602082015250565b600062000971602a83620007d6565b91506200097e8262000913565b604082019050919050565b60006020820190508181036000830152620009a48162000962565b9050919050565b7f4e487b7100000000000000000000000000000000000000000000000000000000600052602260045260246000fd5b60006002820490506001821680620009f357607f821691505b6020821081141562000a0a5762000a09620009ab565b5b50919050565b6132ad8062000a206000396000f3fe608060405234801561001057600080fd5b50600436106101cf5760003560e01c806370a0823111610104578063a217fddf116100a2578063d539139311610071578063d539139314610554578063d547741f14610572578063dd62ed3e1461058e578063e63ab1e9146105be576101cf565b8063a217fddf146104a6578063a457c2d7146104c4578063a9059cbb146104f4578063ca15c87314610524576101cf565b80638f3bfe2f116100de5780638f3bfe2f1461040c5780639010d07c1461042857806391d148541461045857806395d89b4114610488576101cf565b806370a08231146103b657806379cc6790146103e65780638456cb5914610402576101cf565b8063313ce567116101715780633f4ba83a1161014b5780633f4ba83a1461035657806340c10f191461036057806342966c681461037c5780635c975abb14610398576101cf565b8063313ce567146102ec57806336568abe1461030a5780633950935114610326576101cf565b806318160ddd116101ad57806318160ddd1461025257806323b872dd14610270578063248a9ca3146102a05780632f2ff15d146102d0576101cf565b806301ffc9a7146101d457806306fdde0314610204578063095ea7b314610222575b600080fd5b6101ee60048036038101906101e99190612141565b6105dc565b6040516101fb9190612189565b60405180910390f35b61020c610656565b604051610219919061223d565b60405180910390f35b61023c600480360381019061023791906122f3565b6106e8565b6040516102499190612189565b60405180910390f35b61025a61070b565b6040516102679190612342565b60405180910390f35b61028a6004803603810190610285919061235d565b610715565b6040516102979190612189565b60405180910390f35b6102ba60048036038101906102b591906123e6565b610744565b6040516102c79190612422565b60405180910390f35b6102ea60048036038101906102e5919061243d565b610763565b005b6102f461078c565b6040516103019190612499565b60405180910390f35b610324600480360381019061031f919061243d565b610795565b005b610340600480360381019061033b91906122f3565b610818565b60405161034d9190612189565b60405180910390f35b61035e6108c2565b005b61037a600480360381019061037591906122f3565b61093c565b005b610396600480360381019061039191906124b4565b6109ba565b005b6103a06109ce565b6040516103ad9190612189565b60405180910390f35b6103d060048036038101906103cb91906124e1565b6109e5565b6040516103dd9190612342565b60405180910390f35b61040060048036038101906103fb91906122f3565b610a2e565b005b61040a610a4e565b005b610426600480360381019061042191906124e1565b610ac8565b005b610442600480360381019061043d919061250e565b610b4f565b60405161044f919061255d565b60405180910390f35b610472600480360381019061046d919061243d565b610b7e565b60405161047f9190612189565b60405180910390f35b610490610be8565b60405161049d919061223d565b60405180910390f35b6104ae610c7a565b6040516104bb9190612422565b60405180910390f35b6104de60048036038101906104d991906122f3565b610c81565b6040516104eb9190612189565b60405180910390f35b61050e600480360381019061050991906122f3565b610d6b565b60405161051b9190612189565b60405180910390f35b61053e600480360381019061053991906123e6565b610d8e565b60405161054b9190612342565b60405180910390f35b61055c610db2565b6040516105699190612422565b60405180910390f35b61058c6004803603810190610587919061243d565b610dd6565b005b6105a860048036038101906105a39190612578565b610dff565b6040516105b59190612342565b60405180910390f35b6105c6610e86565b6040516105d39190612422565b60405180910390f35b60007f5a05180f000000000000000000000000000000000000000000000000000000007bffffffffffffffffffffffffffffffffffffffffffffffffffffffff1916827bffffffffffffffffffffffffffffffffffffffffffffffffffffffff1916148061064f575061064e82611017565b5b9050919050565b606060058054610665906125e7565b80601f0160208091040260200160405190810160405280929190818152602001828054610691906125e7565b80156106de5780601f106106b3576101008083540402835291602001916106de565b820191906000526020600020905b8154815290600101906020018083116106c157829003601f168201915b5050505050905090565b6000806106f3611091565b9050610700818585611099565b600191505092915050565b6000600454905090565b600080610720611091565b905061072d858285611264565b6107388585856112f0565b60019150509392505050565b6000806000838152602001908152602001600020600101549050919050565b61076c82610744565b61077d81610778611091565b611574565b6107878383611611565b505050565b60006012905090565b61079d611091565b73ffffffffffffffffffffffffffffffffffffffff168173ffffffffffffffffffffffffffffffffffffffff161461080a576040517f08c379a00000000000000000000000000000000000000000000000000000000081526004016108019061268b565b60405180910390fd5b6108148282611645565b5050565b600080610823611091565b90506108b7818585600360008673ffffffffffffffffffffffffffffffffffffffff1673ffffffffffffffffffffffffffffffffffffffff16815260200190815260200160002060008973ffffffffffffffffffffffffffffffffffffffff1673ffffffffffffffffffffffffffffffffffffffff168152602001908152602001600020546108b291906126da565b611099565b600191505092915050565b6108f37f65d7a28e3265b37a6474929f336521b332c1681b933f6cb9f3376673440d862a6108ee611091565b610b7e565b610932576040517f08c379a0000000000000000000000000000000000000000000000000000000008152600401610929906127a2565b60405180910390fd5b61093a611679565b565b61096d7f9f2df0fed2c77648de5860a4cc508cd0818c85b8b8a1ab4ceeef8d981c8956a6610968611091565b610b7e565b6109ac576040517f08c379a00000000000000000000000000000000000000000000000000000000081526004016109a390612834565b60405180910390fd5b6109b6828261171b565b5050565b6109cb6109c5611091565b8261187c565b50565b6000600760009054906101000a900460ff16905090565b6000600260008373ffffffffffffffffffffffffffffffffffffffff1673ffffffffffffffffffffffffffffffffffffffff168152602001908152602001600020549050919050565b610a4082610a3a611091565b83611264565b610a4a828261187c565b5050565b610a7f7f65d7a28e3265b37a6474929f336521b332c1681b933f6cb9f3376673440d862a610a7a611091565b610b7e565b610abe576040517f08c379a0000000000000000000000000000000000000000000000000000000008152600401610ab5906128c6565b60405180910390fd5b610ac6611a55565b565b3373ffffffffffffffffffffffffffffffffffffffff16600760019054906101000a900473ffffffffffffffffffffffffffffffffffffffff1673ffffffffffffffffffffffffffffffffffffffff1614610b2257600080fd5b610b4c7f9f2df0fed2c77648de5860a4cc508cd0818c85b8b8a1ab4ceeef8d981c8956a682611af8565b50565b6000610b768260016000868152602001908152602001600020611b0690919063ffffffff16565b905092915050565b600080600084815260200190815260200160002060000160008373ffffffffffffffffffffffffffffffffffffffff1673ffffffffffffffffffffffffffffffffffffffff16815260200190815260200160002060009054906101000a900460ff16905092915050565b606060068054610bf7906125e7565b80601f0160208091040260200160405190810160405280929190818152602001828054610c23906125e7565b8015610c705780601f10610c4557610100808354040283529160200191610c70565b820191906000526020600020905b815481529060010190602001808311610c5357829003601f168201915b5050505050905090565b6000801b81565b600080610c8c611091565b90506000600360008373ffffffffffffffffffffffffffffffffffffffff1673ffffffffffffffffffffffffffffffffffffffff16815260200190815260200160002060008673ffffffffffffffffffffffffffffffffffffffff1673ffffffffffffffffffffffffffffffffffffffff16815260200190815260200160002054905083811015610d52576040517f08c379a0000000000000000000000000000000000000000000000000000000008152600401610d4990612958565b60405180910390fd5b610d5f8286868403611099565b60019250505092915050565b600080610d76611091565b9050610d838185856112f0565b600191505092915050565b6000610dab60016000848152602001908152602001600020611b20565b9050919050565b7f9f2df0fed2c77648de5860a4cc508cd0818c85b8b8a1ab4ceeef8d981c8956a681565b610ddf82610744565b610df081610deb611091565b611574565b610dfa8383611645565b505050565b6000600360008473ffffffffffffffffffffffffffffffffffffffff1673ffffffffffffffffffffffffffffffffffffffff16815260200190815260200160002060008373ffffffffffffffffffffffffffffffffffffffff1673ffffffffffffffffffffffffffffffffffffffff16815260200190815260200160002054905092915050565b7f65d7a28e3265b37a6474929f336521b332c1681b933f6cb9f3376673440d862a81565b610eb48282610b7e565b610f8657600160008084815260200190815260200160002060000160008373ffffffffffffffffffffffffffffffffffffffff1673ffffffffffffffffffffffffffffffffffffffff16815260200190815260200160002060006101000a81548160ff021916908315150217905550610f2b611091565b73ffffffffffffffffffffffffffffffffffffffff168173ffffffffffffffffffffffffffffffffffffffff16837f2f8788117e7eff1d82e926ec794901d17c78024a50270940304540a733656f0d60405160405180910390a45b5050565b6000610fb2836000018373ffffffffffffffffffffffffffffffffffffffff1660001b611b35565b905092915050565b610fc5838383611012565b610fcd6109ce565b1561100d576040517f08c379a0000000000000000000000000000000000000000000000000000000008152600401611004906129ea565b60405180910390fd5b505050565b505050565b60007f7965db0b000000000000000000000000000000000000000000000000000000007bffffffffffffffffffffffffffffffffffffffffffffffffffffffff1916827bffffffffffffffffffffffffffffffffffffffffffffffffffffffff1916148061108a575061108982611ba5565b5b9050919050565b600033905090565b600073ffffffffffffffffffffffffffffffffffffffff168373ffffffffffffffffffffffffffffffffffffffff161415611109576040517f08c379a000000000000000000000000000000000000000000000000000000000815260040161110090612a7c565b60405180910390fd5b600073ffffffffffffffffffffffffffffffffffffffff168273ffffffffffffffffffffffffffffffffffffffff161415611179576040517f08c379a000000000000000000000000000000000000000000000000000000000815260040161117090612b0e565b60405180910390fd5b80600360008573ffffffffffffffffffffffffffffffffffffffff1673ffffffffffffffffffffffffffffffffffffffff16815260200190815260200160002060008473ffffffffffffffffffffffffffffffffffffffff1673ffffffffffffffffffffffffffffffffffffffff168152602001908152602001600020819055508173ffffffffffffffffffffffffffffffffffffffff168373ffffffffffffffffffffffffffffffffffffffff167f8c5be1e5ebec7d5bd14f71427d1e84f3dd0314c0f7b2291e5b200ac8c7c3b925836040516112579190612342565b60405180910390a3505050565b60006112708484610dff565b90507fffffffffffffffffffffffffffffffffffffffffffffffffffffffffffffffff81146112ea57818110156112dc576040517f08c379a00000000000000000000000000000000000000000000000000000000081526004016112d390612b7a565b60405180910390fd5b6112e98484848403611099565b5b50505050565b600073ffffffffffffffffffffffffffffffffffffffff168373ffffffffffffffffffffffffffffffffffffffff161415611360576040517f08c379a000000000000000000000000000000000000000000000000000000000815260040161135790612c0c565b60405180910390fd5b600073ffffffffffffffffffffffffffffffffffffffff168273ffffffffffffffffffffffffffffffffffffffff1614156113d0576040517f08c379a00000000000000000000000000000000000000000000000000000000081526004016113c790612c9e565b60405180910390fd5b6113db838383611c0f565b6000600260008573ffffffffffffffffffffffffffffffffffffffff1673ffffffffffffffffffffffffffffffffffffffff16815260200190815260200160002054905081811015611462576040517f08c379a000000000000000000000000000000000000000000000000000000000815260040161145990612d30565b60405180910390fd5b818103600260008673ffffffffffffffffffffffffffffffffffffffff1673ffffffffffffffffffffffffffffffffffffffff1681526020019081526020016000208190555081600260008573ffffffffffffffffffffffffffffffffffffffff1673ffffffffffffffffffffffffffffffffffffffff16815260200190815260200160002060008282546114f791906126da565b925050819055508273ffffffffffffffffffffffffffffffffffffffff168473ffffffffffffffffffffffffffffffffffffffff167fddf252ad1be2c89b69c2b068fc378daa952ba7f163c4a11628f55a4df523b3ef8460405161155b9190612342565b60405180910390a361156e848484611c1f565b50505050565b61157e8282610b7e565b61160d576115a38173ffffffffffffffffffffffffffffffffffffffff166014611c24565b6115b18360001c6020611c24565b6040516020016115c2929190612e24565b6040516020818303038152906040526040517f08c379a0000000000000000000000000000000000000000000000000000000008152600401611604919061223d565b60405180910390fd5b5050565b61161b8282610eaa565b6116408160016000858152602001908152602001600020610f8a90919063ffffffff16565b505050565b61164f8282611e60565b6116748160016000858152602001908152602001600020611f4190919063ffffffff16565b505050565b6116816109ce565b6116c0576040517f08c379a00000000000000000000000000000000000000000000000000000000081526004016116b790612eaa565b60405180910390fd5b6000600760006101000a81548160ff0219169083151502179055507f5db9ee0a495bf2e6ff9c91a7834c1ba4fdd244a5e8aa4e537bd38aeae4b073aa611704611091565b604051611711919061255d565b60405180910390a1565b600073ffffffffffffffffffffffffffffffffffffffff168273ffffffffffffffffffffffffffffffffffffffff16141561178b576040517f08c379a000000000000000000000000000000000000000000000000000000000815260040161178290612f16565b60405180910390fd5b61179760008383611c0f565b80600460008282546117a991906126da565b9250508190555080600260008473ffffffffffffffffffffffffffffffffffffffff1673ffffffffffffffffffffffffffffffffffffffff16815260200190815260200160002060008282546117ff91906126da565b925050819055508173ffffffffffffffffffffffffffffffffffffffff16600073ffffffffffffffffffffffffffffffffffffffff167fddf252ad1be2c89b69c2b068fc378daa952ba7f163c4a11628f55a4df523b3ef836040516118649190612342565b60405180910390a361187860008383611c1f565b5050565b600073ffffffffffffffffffffffffffffffffffffffff168273ffffffffffffffffffffffffffffffffffffffff1614156118ec576040517f08c379a00000000000000000000000000000000000000000000000000000000081526004016118e390612fa8565b60405180910390fd5b6118f882600083611c0f565b6000600260008473ffffffffffffffffffffffffffffffffffffffff1673ffffffffffffffffffffffffffffffffffffffff1681526020019081526020016000205490508181101561197f576040517f08c379a00000000000000000000000000000000000000000000000000000000081526004016119769061303a565b60405180910390fd5b818103600260008573ffffffffffffffffffffffffffffffffffffffff1673ffffffffffffffffffffffffffffffffffffffff1681526020019081526020016000208190555081600460008282546119d7919061305a565b92505081905550600073ffffffffffffffffffffffffffffffffffffffff168373ffffffffffffffffffffffffffffffffffffffff167fddf252ad1be2c89b69c2b068fc378daa952ba7f163c4a11628f55a4df523b3ef84604051611a3c9190612342565b60405180910390a3611a5083600084611c1f565b505050565b611a5d6109ce565b15611a9d576040517f08c379a0000000000000000000000000000000000000000000000000000000008152600401611a94906130da565b60405180910390fd5b6001600760006101000a81548160ff0219169083151502179055507f62e78cea01bee320cd4e420270b5ea74000d11b0c9f74754ebdbfc544b05a258611ae1611091565b604051611aee919061255d565b60405180910390a1565b611b028282611611565b5050565b6000611b158360000183611f71565b60001c905092915050565b6000611b2e82600001611f9c565b9050919050565b6000611b418383611fad565b611b9a578260000182908060018154018082558091505060019003906000526020600020016000909190919091505582600001805490508360010160008481526020019081526020016000208190555060019050611b9f565b600090505b92915050565b60007f01ffc9a7000000000000000000000000000000000000000000000000000000007bffffffffffffffffffffffffffffffffffffffffffffffffffffffff1916827bffffffffffffffffffffffffffffffffffffffffffffffffffffffff1916149050919050565b611c1a838383610fba565b505050565b505050565b606060006002836002611c3791906130fa565b611c4191906126da565b67ffffffffffffffff811115611c5a57611c59613154565b5b6040519080825280601f01601f191660200182016040528015611c8c5781602001600182028036833780820191505090505b5090507f300000000000000000000000000000000000000000000000000000000000000081600081518110611cc457611cc3613183565b5b60200101907effffffffffffffffffffffffffffffffffffffffffffffffffffffffffffff1916908160001a9053507f780000000000000000000000000000000000000000000000000000000000000081600181518110611d2857611d27613183565b5b60200101907effffffffffffffffffffffffffffffffffffffffffffffffffffffffffffff1916908160001a90535060006001846002611d6891906130fa565b611d7291906126da565b90505b6001811115611e12577f3031323334353637383961626364656600000000000000000000000000000000600f861660108110611db457611db3613183565b5b1a60f81b828281518110611dcb57611dca613183565b5b60200101907effffffffffffffffffffffffffffffffffffffffffffffffffffffffffffff1916908160001a905350600485901c945080611e0b906131b2565b9050611d75565b5060008414611e56576040517f08c379a0000000000000000000000000000000000000000000000000000000008152600401611e4d90613228565b60405180910390fd5b8091505092915050565b611e6a8282610b7e565b15611f3d57600080600084815260200190815260200160002060000160008373ffffffffffffffffffffffffffffffffffffffff1673ffffffffffffffffffffffffffffffffffffffff16815260200190815260200160002060006101000a81548160ff021916908315150217905550611ee2611091565b73ffffffffffffffffffffffffffffffffffffffff168173ffffffffffffffffffffffffffffffffffffffff16837ff6391f5c32d9c69d2a47ea670b442974b53935d1edc7fd64eb21e047a839171b60405160405180910390a45b5050565b6000611f69836000018373ffffffffffffffffffffffffffffffffffffffff1660001b611fd0565b905092915050565b6000826000018281548110611f8957611f88613183565b5b9060005260206000200154905092915050565b600081600001805490509050919050565b600080836001016000848152602001908152602001600020541415905092915050565b600080836001016000848152602001908152602001600020549050600081146120d8576000600182612002919061305a565b905060006001866000018054905061201a919061305a565b905081811461208957600086600001828154811061203b5761203a613183565b5b906000526020600020015490508087600001848154811061205f5761205e613183565b5b90600052602060002001819055508387600101600083815260200190815260200160002081905550505b8560000180548061209d5761209c613248565b5b6001900381819060005260206000200160009055905585600101600086815260200190815260200160002060009055600193505050506120de565b60009150505b92915050565b600080fd5b60007fffffffff0000000000000000000000000000000000000000000000000000000082169050919050565b61211e816120e9565b811461212957600080fd5b50565b60008135905061213b81612115565b92915050565b600060208284031215612157576121566120e4565b5b60006121658482850161212c565b91505092915050565b60008115159050919050565b6121838161216e565b82525050565b600060208201905061219e600083018461217a565b92915050565b600081519050919050565b600082825260208201905092915050565b60005b838110156121de5780820151818401526020810190506121c3565b838111156121ed576000848401525b50505050565b6000601f19601f8301169050919050565b600061220f826121a4565b61221981856121af565b93506122298185602086016121c0565b612232816121f3565b840191505092915050565b600060208201905081810360008301526122578184612204565b905092915050565b600073ffffffffffffffffffffffffffffffffffffffff82169050919050565b600061228a8261225f565b9050919050565b61229a8161227f565b81146122a557600080fd5b50565b6000813590506122b781612291565b92915050565b6000819050919050565b6122d0816122bd565b81146122db57600080fd5b50565b6000813590506122ed816122c7565b92915050565b6000806040838503121561230a576123096120e4565b5b6000612318858286016122a8565b9250506020612329858286016122de565b9150509250929050565b61233c816122bd565b82525050565b60006020820190506123576000830184612333565b92915050565b600080600060608486031215612376576123756120e4565b5b6000612384868287016122a8565b9350506020612395868287016122a8565b92505060406123a6868287016122de565b9150509250925092565b6000819050919050565b6123c3816123b0565b81146123ce57600080fd5b50565b6000813590506123e0816123ba565b92915050565b6000602082840312156123fc576123fb6120e4565b5b600061240a848285016123d1565b91505092915050565b61241c816123b0565b82525050565b60006020820190506124376000830184612413565b92915050565b60008060408385031215612454576124536120e4565b5b6000612462858286016123d1565b9250506020612473858286016122a8565b9150509250929050565b600060ff82169050919050565b6124938161247d565b82525050565b60006020820190506124ae600083018461248a565b92915050565b6000602082840312156124ca576124c96120e4565b5b60006124d8848285016122de565b91505092915050565b6000602082840312156124f7576124f66120e4565b5b6000612505848285016122a8565b91505092915050565b60008060408385031215612525576125246120e4565b5b6000612533858286016123d1565b9250506020612544858286016122de565b9150509250929050565b6125578161227f565b82525050565b6000602082019050612572600083018461254e565b92915050565b6000806040838503121561258f5761258e6120e4565b5b600061259d858286016122a8565b92505060206125ae858286016122a8565b9150509250929050565b7f4e487b7100000000000000000000000000000000000000000000000000000000600052602260045260246000fd5b600060028204905060018216806125ff57607f821691505b60208210811415612613576126126125b8565b5b50919050565b7f416363657373436f6e74726f6c3a2063616e206f6e6c792072656e6f756e636560008201527f20726f6c657320666f722073656c660000000000000000000000000000000000602082015250565b6000612675602f836121af565b915061268082612619565b604082019050919050565b600060208201905081810360008301526126a481612668565b9050919050565b7f4e487b7100000000000000000000000000000000000000000000000000000000600052601160045260246000fd5b60006126e5826122bd565b91506126f0836122bd565b9250827fffffffffffffffffffffffffffffffffffffffffffffffffffffffffffffffff03821115612725576127246126ab565b5b828201905092915050565b7f45524332305072657365744d696e7465725061757365723a206d75737420686160008201527f76652070617573657220726f6c6520746f20756e706175736500000000000000602082015250565b600061278c6039836121af565b915061279782612730565b604082019050919050565b600060208201905081810360008301526127bb8161277f565b9050919050565b7f45524332305072657365744d696e7465725061757365723a206d75737420686160008201527f7665206d696e74657220726f6c6520746f206d696e7400000000000000000000602082015250565b600061281e6036836121af565b9150612829826127c2565b604082019050919050565b6000602082019050818103600083015261284d81612811565b9050919050565b7f45524332305072657365744d696e7465725061757365723a206d75737420686160008201527f76652070617573657220726f6c6520746f207061757365000000000000000000602082015250565b60006128b06037836121af565b91506128bb82612854565b604082019050919050565b600060208201905081810360008301526128df816128a3565b9050919050565b7f45524332303a2064656372656173656420616c6c6f77616e63652062656c6f7760008201527f207a65726f000000000000000000000000000000000000000000000000000000602082015250565b60006129426025836121af565b915061294d826128e6565b604082019050919050565b6000602082019050818103600083015261297181612935565b9050919050565b7f45524332305061757361626c653a20746f6b656e207472616e7366657220776860008201527f696c652070617573656400000000000000000000000000000000000000000000602082015250565b60006129d4602a836121af565b91506129df82612978565b604082019050919050565b60006020820190508181036000830152612a03816129c7565b9050919050565b7f45524332303a20617070726f76652066726f6d20746865207a65726f2061646460008201527f7265737300000000000000000000000000000000000000000000000000000000602082015250565b6000612a666024836121af565b9150612a7182612a0a565b604082019050919050565b60006020820190508181036000830152612a9581612a59565b9050919050565b7f45524332303a20617070726f766520746f20746865207a65726f20616464726560008201527f7373000000000000000000000000000000000000000000000000000000000000602082015250565b6000612af86022836121af565b9150612b0382612a9c565b604082019050919050565b60006020820190508181036000830152612b2781612aeb565b9050919050565b7f45524332303a20696e73756666696369656e7420616c6c6f77616e6365000000600082015250565b6000612b64601d836121af565b9150612b6f82612b2e565b602082019050919050565b60006020820190508181036000830152612b9381612b57565b9050919050565b7f45524332303a207472616e736665722066726f6d20746865207a65726f20616460008201527f6472657373000000000000000000000000000000000000000000000000000000602082015250565b6000612bf66025836121af565b9150612c0182612b9a565b604082019050919050565b60006020820190508181036000830152612c2581612be9565b9050919050565b7f45524332303a207472616e7366657220746f20746865207a65726f206164647260008201527f6573730000000000000000000000000000000000000000000000000000000000602082015250565b6000612c886023836121af565b9150612c9382612c2c565b604082019050919050565b60006020820190508181036000830152612cb781612c7b565b9050919050565b7f45524332303a207472616e7366657220616d6f756e742065786365656473206260008201527f616c616e63650000000000000000000000000000000000000000000000000000602082015250565b6000612d1a6026836121af565b9150612d2582612cbe565b604082019050919050565b60006020820190508181036000830152612d4981612d0d565b9050919050565b600081905092915050565b7f416363657373436f6e74726f6c3a206163636f756e7420000000000000000000600082015250565b6000612d91601783612d50565b9150612d9c82612d5b565b601782019050919050565b6000612db2826121a4565b612dbc8185612d50565b9350612dcc8185602086016121c0565b80840191505092915050565b7f206973206d697373696e6720726f6c6520000000000000000000000000000000600082015250565b6000612e0e601183612d50565b9150612e1982612dd8565b601182019050919050565b6000612e2f82612d84565b9150612e3b8285612da7565b9150612e4682612e01565b9150612e528284612da7565b91508190509392505050565b7f5061757361626c653a206e6f7420706175736564000000000000000000000000600082015250565b6000612e946014836121af565b9150612e9f82612e5e565b602082019050919050565b60006020820190508181036000830152612ec381612e87565b9050919050565b7f45524332303a206d696e7420746f20746865207a65726f206164647265737300600082015250565b6000612f00601f836121af565b9150612f0b82612eca565b602082019050919050565b60006020820190508181036000830152612f2f81612ef3565b9050919050565b7f45524332303a206275726e2066726f6d20746865207a65726f2061646472657360008201527f7300000000000000000000000000000000000000000000000000000000000000602082015250565b6000612f926021836121af565b9150612f9d82612f36565b604082019050919050565b60006020820190508181036000830152612fc181612f85565b9050919050565b7f45524332303a206275726e20616d6f756e7420657863656564732062616c616e60008201527f6365000000000000000000000000000000000000000000000000000000000000602082015250565b60006130246022836121af565b915061302f82612fc8565b604082019050919050565b6000602082019050818103600083015261305381613017565b9050919050565b6000613065826122bd565b9150613070836122bd565b925082821015613083576130826126ab565b5b828203905092915050565b7f5061757361626c653a2070617573656400000000000000000000000000000000600082015250565b60006130c46010836121af565b91506130cf8261308e565b602082019050919050565b600060208201905081810360008301526130f3816130b7565b9050919050565b6000613105826122bd565b9150613110836122bd565b9250817fffffffffffffffffffffffffffffffffffffffffffffffffffffffffffffffff0483118215151615613149576131486126ab565b5b828202905092915050565b7f4e487b7100000000000000000000000000000000000000000000000000000000600052604160045260246000fd5b7f4e487b7100000000000000000000000000000000000000000000000000000000600052603260045260246000fd5b60006131bd826122bd565b915060008214156131d1576131d06126ab565b5b600182039050919050565b7f537472696e67733a20686578206c656e67746820696e73756666696369656e74600082015250565b60006132126020836121af565b915061321d826131dc565b602082019050919050565b6000602082019050818103600083015261324181613205565b9050919050565b7f4e487b7100000000000000000000000000000000000000000000000000000000600052603160045260246000fdfea26469706673582212206f6f92cdb1234ff1cfb1b07b02468af2aef24d861341aaa788ce5356d9a4648c64736f6c634300080a0033",
  "immutableReferences": {},
  "source": "// contracts/GLDToken.sol\n// SPDX-License-Identifier: MIT\npragma solidity ^0.8.0;\n\nimport \"@openzeppelin/contracts/token/ERC20/presets/ERC20PresetMinterPauser.sol\";\n\ncontract HomeToken is ERC20PresetMinterPauser {\n  address admin;\n  \n  constructor(uint256 initialSupply) ERC20PresetMinterPauser(\"Home Token\", \"HOME\") {\n    admin = msg.sender;\n    _mint(msg.sender, initialSupply);\n  }\n\n  function setupMinter(address minter) public virtual {\n    require(admin == msg.sender);\n    _setupRole(MINTER_ROLE, minter);\n  }\n}",
  "sourcePath": "/Users/scotthickmann/GitHub/Teamzero/packages/blockchain/contracts/HomeToken.sol",
  "compiler": {
    "name": "solc",
    "version": "0.8.10+commit.fc410830.Emscripten.clang"
  },
  "schemaVersion": "3.4.4",
  "updatedAt": "2022-02-20T06:39:14.101Z",
  "networkType": "ethereum",
  "devdoc": {
    "kind": "dev",
    "methods": {
      "allowance(address,address)": {
        "details": "See {IERC20-allowance}."
      },
      "approve(address,uint256)": {
        "details": "See {IERC20-approve}. NOTE: If `amount` is the maximum `uint256`, the allowance is not updated on `transferFrom`. This is semantically equivalent to an infinite approval. Requirements: - `spender` cannot be the zero address."
      },
      "balanceOf(address)": {
        "details": "See {IERC20-balanceOf}."
      },
      "burn(uint256)": {
        "details": "Destroys `amount` tokens from the caller. See {ERC20-_burn}."
      },
      "burnFrom(address,uint256)": {
        "details": "Destroys `amount` tokens from `account`, deducting from the caller's allowance. See {ERC20-_burn} and {ERC20-allowance}. Requirements: - the caller must have allowance for ``accounts``'s tokens of at least `amount`."
      },
      "decimals()": {
        "details": "Returns the number of decimals used to get its user representation. For example, if `decimals` equals `2`, a balance of `505` tokens should be displayed to a user as `5.05` (`505 / 10 ** 2`). Tokens usually opt for a value of 18, imitating the relationship between Ether and Wei. This is the value {ERC20} uses, unless this function is overridden; NOTE: This information is only used for _display_ purposes: it in no way affects any of the arithmetic of the contract, including {IERC20-balanceOf} and {IERC20-transfer}."
      },
      "decreaseAllowance(address,uint256)": {
        "details": "Atomically decreases the allowance granted to `spender` by the caller. This is an alternative to {approve} that can be used as a mitigation for problems described in {IERC20-approve}. Emits an {Approval} event indicating the updated allowance. Requirements: - `spender` cannot be the zero address. - `spender` must have allowance for the caller of at least `subtractedValue`."
      },
      "getRoleAdmin(bytes32)": {
        "details": "Returns the admin role that controls `role`. See {grantRole} and {revokeRole}. To change a role's admin, use {_setRoleAdmin}."
      },
      "getRoleMember(bytes32,uint256)": {
        "details": "Returns one of the accounts that have `role`. `index` must be a value between 0 and {getRoleMemberCount}, non-inclusive. Role bearers are not sorted in any particular way, and their ordering may change at any point. WARNING: When using {getRoleMember} and {getRoleMemberCount}, make sure you perform all queries on the same block. See the following https://forum.openzeppelin.com/t/iterating-over-elements-on-enumerableset-in-openzeppelin-contracts/2296[forum post] for more information."
      },
      "getRoleMemberCount(bytes32)": {
        "details": "Returns the number of accounts that have `role`. Can be used together with {getRoleMember} to enumerate all bearers of a role."
      },
      "grantRole(bytes32,address)": {
        "details": "Grants `role` to `account`. If `account` had not been already granted `role`, emits a {RoleGranted} event. Requirements: - the caller must have ``role``'s admin role."
      },
      "hasRole(bytes32,address)": {
        "details": "Returns `true` if `account` has been granted `role`."
      },
      "increaseAllowance(address,uint256)": {
        "details": "Atomically increases the allowance granted to `spender` by the caller. This is an alternative to {approve} that can be used as a mitigation for problems described in {IERC20-approve}. Emits an {Approval} event indicating the updated allowance. Requirements: - `spender` cannot be the zero address."
      },
      "mint(address,uint256)": {
        "details": "Creates `amount` new tokens for `to`. See {ERC20-_mint}. Requirements: - the caller must have the `MINTER_ROLE`."
      },
      "name()": {
        "details": "Returns the name of the token."
      },
      "pause()": {
        "details": "Pauses all token transfers. See {ERC20Pausable} and {Pausable-_pause}. Requirements: - the caller must have the `PAUSER_ROLE`."
      },
      "paused()": {
        "details": "Returns true if the contract is paused, and false otherwise."
      },
      "renounceRole(bytes32,address)": {
        "details": "Revokes `role` from the calling account. Roles are often managed via {grantRole} and {revokeRole}: this function's purpose is to provide a mechanism for accounts to lose their privileges if they are compromised (such as when a trusted device is misplaced). If the calling account had been revoked `role`, emits a {RoleRevoked} event. Requirements: - the caller must be `account`."
      },
      "revokeRole(bytes32,address)": {
        "details": "Revokes `role` from `account`. If `account` had been granted `role`, emits a {RoleRevoked} event. Requirements: - the caller must have ``role``'s admin role."
      },
      "supportsInterface(bytes4)": {
        "details": "See {IERC165-supportsInterface}."
      },
      "symbol()": {
        "details": "Returns the symbol of the token, usually a shorter version of the name."
      },
      "totalSupply()": {
        "details": "See {IERC20-totalSupply}."
      },
      "transfer(address,uint256)": {
        "details": "See {IERC20-transfer}. Requirements: - `to` cannot be the zero address. - the caller must have a balance of at least `amount`."
      },
      "transferFrom(address,address,uint256)": {
        "details": "See {IERC20-transferFrom}. Emits an {Approval} event indicating the updated allowance. This is not required by the EIP. See the note at the beginning of {ERC20}. NOTE: Does not update the allowance if the current allowance is the maximum `uint256`. Requirements: - `from` and `to` cannot be the zero address. - `from` must have a balance of at least `amount`. - the caller must have allowance for ``from``'s tokens of at least `amount`."
      },
      "unpause()": {
        "details": "Unpauses all token transfers. See {ERC20Pausable} and {Pausable-_unpause}. Requirements: - the caller must have the `PAUSER_ROLE`."
      }
    },
    "version": 1
  },
  "userdoc": {
    "kind": "user",
    "methods": {},
    "version": 1
  }
}