{
  "contractName": "Micropayments",
  "abi": [
    {
      "inputs": [
        {
          "internalType": "address payable",
          "name": "recipientAddress",
          "type": "address"
        },
        {
          "internalType": "uint256",
          "name": "duration",
          "type": "uint256"
        },
        {
          "internalType": "uint256[]",
          "name": "cond",
          "type": "uint256[]"
        },
        {
          "internalType": "uint256",
          "name": "maxam",
          "type": "uint256"
        }
      ],
      "stateMutability": "payable",
      "type": "constructor",
      "payable": true
    },
    {
      "inputs": [
        {
          "internalType": "uint256",
          "name": "",
          "type": "uint256"
        }
      ],
      "name": "conditions",
      "outputs": [
        {
          "internalType": "uint256",
          "name": "",
          "type": "uint256"
        }
      ],
      "stateMutability": "view",
      "type": "function",
      "constant": true
    },
    {
      "inputs": [],
      "name": "expiration",
      "outputs": [
        {
          "internalType": "uint256",
          "name": "",
          "type": "uint256"
        }
      ],
      "stateMutability": "view",
      "type": "function",
      "constant": true
    },
    {
      "inputs": [],
      "name": "maxamount",
      "outputs": [
        {
          "internalType": "uint256",
          "name": "",
          "type": "uint256"
        }
      ],
      "stateMutability": "view",
      "type": "function",
      "constant": true
    },
    {
      "inputs": [],
      "name": "recipient",
      "outputs": [
        {
          "internalType": "address payable",
          "name": "",
          "type": "address"
        }
      ],
      "stateMutability": "view",
      "type": "function",
      "constant": true
    },
    {
      "inputs": [],
      "name": "sender",
      "outputs": [
        {
          "internalType": "address payable",
          "name": "",
          "type": "address"
        }
      ],
      "stateMutability": "view",
      "type": "function",
      "constant": true
    },
    {
      "inputs": [
        {
          "internalType": "uint256",
          "name": "amount",
          "type": "uint256"
        },
        {
          "internalType": "uint256[]",
          "name": "conds",
          "type": "uint256[]"
        },
        {
          "internalType": "bytes",
          "name": "signature",
          "type": "bytes"
        }
      ],
      "name": "close",
      "outputs": [],
      "stateMutability": "nonpayable",
      "type": "function"
    },
    {
      "inputs": [
        {
          "internalType": "uint256",
          "name": "amount",
          "type": "uint256"
        },
        {
          "internalType": "uint256[]",
          "name": "conds",
          "type": "uint256[]"
        }
      ],
      "name": "simple_close",
      "outputs": [],
      "stateMutability": "nonpayable",
      "type": "function"
    },
    {
      "inputs": [
        {
          "internalType": "uint256",
          "name": "newExpiration",
          "type": "uint256"
        }
      ],
      "name": "extend",
      "outputs": [],
      "stateMutability": "nonpayable",
      "type": "function"
    },
    {
      "inputs": [
        {
          "internalType": "uint256[]",
          "name": "newconds",
          "type": "uint256[]"
        }
      ],
      "name": "modifyConditions",
      "outputs": [],
      "stateMutability": "nonpayable",
      "type": "function"
    },
    {
      "inputs": [],
      "name": "claimTimeout",
      "outputs": [],
      "stateMutability": "nonpayable",
      "type": "function"
    }
  ],
  "bytecode": "0x60806040526040516200149a3803806200149a833981810160405281019062000029919062000364565b336000806101000a81548173ffffffffffffffffffffffffffffffffffffffff021916908373ffffffffffffffffffffffffffffffffffffffff16021790555083600160006101000a81548173ffffffffffffffffffffffffffffffffffffffff021916908373ffffffffffffffffffffffffffffffffffffffff1602179055508242620000b8919062000424565b6007819055508060088190555060005b60018351620000d8919062000481565b8110156200013057828181518110620000f657620000f5620004bc565b5b602002602001015160028260058110620001155762000114620004bc565b5b018190555080806200012790620004eb565b915050620000c8565b505050505062000539565b6000604051905090565b600080fd5b600080fd5b600073ffffffffffffffffffffffffffffffffffffffff82169050919050565b60006200017c826200014f565b9050919050565b6200018e816200016f565b81146200019a57600080fd5b50565b600081519050620001ae8162000183565b92915050565b6000819050919050565b620001c981620001b4565b8114620001d557600080fd5b50565b600081519050620001e981620001be565b92915050565b600080fd5b6000601f19601f8301169050919050565b7f4e487b7100000000000000000000000000000000000000000000000000000000600052604160045260246000fd5b6200023f82620001f4565b810181811067ffffffffffffffff8211171562000261576200026062000205565b5b80604052505050565b6000620002766200013b565b905062000284828262000234565b919050565b600067ffffffffffffffff821115620002a757620002a662000205565b5b602082029050602081019050919050565b600080fd5b6000620002d4620002ce8462000289565b6200026a565b90508083825260208201905060208402830185811115620002fa57620002f9620002b8565b5b835b81811015620003275780620003128882620001d8565b845260208401935050602081019050620002fc565b5050509392505050565b600082601f830112620003495762000348620001ef565b5b81516200035b848260208601620002bd565b91505092915050565b6000806000806080858703121562000381576200038062000145565b5b600062000391878288016200019d565b9450506020620003a487828801620001d8565b935050604085015167ffffffffffffffff811115620003c857620003c76200014a565b5b620003d68782880162000331565b9250506060620003e987828801620001d8565b91505092959194509250565b7f4e487b7100000000000000000000000000000000000000000000000000000000600052601160045260246000fd5b60006200043182620001b4565b91506200043e83620001b4565b9250827fffffffffffffffffffffffffffffffffffffffffffffffffffffffffffffffff03821115620004765762000475620003f5565b5b828201905092915050565b60006200048e82620001b4565b91506200049b83620001b4565b925082821015620004b157620004b0620003f5565b5b828203905092915050565b7f4e487b7100000000000000000000000000000000000000000000000000000000600052603260045260246000fd5b6000620004f882620001b4565b91507fffffffffffffffffffffffffffffffffffffffffffffffffffffffffffffffff8214156200052e576200052d620003f5565b5b600182019050919050565b610f5180620005496000396000f3fe608060405234801561001057600080fd5b506004361061009e5760003560e01c8063818a161211610066578063818a1612146101375780638dca9e37146101535780638e50a8ef1461016f5780639714378c1461018b578063f06f5668146101a75761009e565b80630e1da6c3146100a357806326c50007146100ad5780634665096d146100dd57806366d003ac146100fb57806367e404ce14610119575b600080fd5b6100ab6101c5565b005b6100c760048036038101906100c29190610852565b61020d565b6040516100d4919061088e565b60405180910390f35b6100e5610228565b6040516100f2919061088e565b60405180910390f35b61010361022e565b60405161011091906108ea565b60405180910390f35b610121610254565b60405161012e91906108ea565b60405180910390f35b610151600480360381019061014c9190610a5e565b610278565b005b61016d60048036038101906101689190610b5c565b610333565b005b61018960048036038101906101849190610be7565b6104b8565b005b6101a560048036038101906101a09190610852565b61062a565b005b6101af61069a565b6040516101bc919061088e565b60405180910390f35b6007544210156101d457600080fd5b60008054906101000a900473ffffffffffffffffffffffffffffffffffffffff1673ffffffffffffffffffffffffffffffffffffffff16ff5b6002816005811061021d57600080fd5b016000915090505481565b60075481565b600160009054906101000a900473ffffffffffffffffffffffffffffffffffffffff1681565b60008054906101000a900473ffffffffffffffffffffffffffffffffffffffff1681565b60008054906101000a900473ffffffffffffffffffffffffffffffffffffffff1673ffffffffffffffffffffffffffffffffffffffff163373ffffffffffffffffffffffffffffffffffffffff16146102d057600080fd5b60005b600182516102e19190610c72565b81101561032f578181815181106102fb576102fa610ca6565b5b60200260200101516002826005811061031757610316610ca6565b5b0181905550808061032790610cd5565b9150506102d3565b5050565b600160009054906101000a900473ffffffffffffffffffffffffffffffffffffffff1673ffffffffffffffffffffffffffffffffffffffff163373ffffffffffffffffffffffffffffffffffffffff161461038d57600080fd5b61039783826106a0565b6103a057600080fd5b6008548311156103af57600080fd5b60005b600183516103c09190610c72565b81101561041557600281600581106103db576103da610ca6565b5b01548382815181106103f0576103ef610ca6565b5b60200260200101511461040257600080fd5b808061040d90610cd5565b9150506103b2565b50600160009054906101000a900473ffffffffffffffffffffffffffffffffffffffff1673ffffffffffffffffffffffffffffffffffffffff166108fc849081150290604051600060405180830381858888f1935050505015801561047e573d6000803e3d6000fd5b5060008054906101000a900473ffffffffffffffffffffffffffffffffffffffff1673ffffffffffffffffffffffffffffffffffffffff16ff5b600160009054906101000a900473ffffffffffffffffffffffffffffffffffffffff1673ffffffffffffffffffffffffffffffffffffffff163373ffffffffffffffffffffffffffffffffffffffff161461051257600080fd5b60085482111561052157600080fd5b60005b600182516105329190610c72565b811015610587576002816005811061054d5761054c610ca6565b5b015482828151811061056257610561610ca6565b5b60200260200101511461057457600080fd5b808061057f90610cd5565b915050610524565b50600160009054906101000a900473ffffffffffffffffffffffffffffffffffffffff1673ffffffffffffffffffffffffffffffffffffffff166108fc839081150290604051600060405180830381858888f193505050501580156105f0573d6000803e3d6000fd5b5060008054906101000a900473ffffffffffffffffffffffffffffffffffffffff1673ffffffffffffffffffffffffffffffffffffffff16ff5b60008054906101000a900473ffffffffffffffffffffffffffffffffffffffff1673ffffffffffffffffffffffffffffffffffffffff163373ffffffffffffffffffffffffffffffffffffffff161461068257600080fd5b600754811161069057600080fd5b8060078190555050565b60085481565b6000806106d430856040516020016106b9929190610dd7565b60405160208183030381529060405280519060200120610737565b905060008054906101000a900473ffffffffffffffffffffffffffffffffffffffff1673ffffffffffffffffffffffffffffffffffffffff166107178285610767565b73ffffffffffffffffffffffffffffffffffffffff161491505092915050565b60008160405160200161074a9190610e85565b604051602081830303815290604052805190602001209050919050565b600080600080610776856107d6565b9250925092506001868484846040516000815260200160405260405161079f9493929190610ed6565b6020604051602081039080840390855afa1580156107c1573d6000803e3d6000fd5b50505060206040510351935050505092915050565b600080600060418451146107e957600080fd5b6020840151915060408401519050606084015160001a92509193909250565b6000604051905090565b600080fd5b600080fd5b6000819050919050565b61082f8161081c565b811461083a57600080fd5b50565b60008135905061084c81610826565b92915050565b60006020828403121561086857610867610812565b5b60006108768482850161083d565b91505092915050565b6108888161081c565b82525050565b60006020820190506108a3600083018461087f565b92915050565b600073ffffffffffffffffffffffffffffffffffffffff82169050919050565b60006108d4826108a9565b9050919050565b6108e4816108c9565b82525050565b60006020820190506108ff60008301846108db565b92915050565b600080fd5b6000601f19601f8301169050919050565b7f4e487b7100000000000000000000000000000000000000000000000000000000600052604160045260246000fd5b6109538261090a565b810181811067ffffffffffffffff821117156109725761097161091b565b5b80604052505050565b6000610985610808565b9050610991828261094a565b919050565b600067ffffffffffffffff8211156109b1576109b061091b565b5b602082029050602081019050919050565b600080fd5b60006109da6109d584610996565b61097b565b905080838252602082019050602084028301858111156109fd576109fc6109c2565b5b835b81811015610a265780610a12888261083d565b8452602084019350506020810190506109ff565b5050509392505050565b600082601f830112610a4557610a44610905565b5b8135610a558482602086016109c7565b91505092915050565b600060208284031215610a7457610a73610812565b5b600082013567ffffffffffffffff811115610a9257610a91610817565b5b610a9e84828501610a30565b91505092915050565b600080fd5b600067ffffffffffffffff821115610ac757610ac661091b565b5b610ad08261090a565b9050602081019050919050565b82818337600083830152505050565b6000610aff610afa84610aac565b61097b565b905082815260208101848484011115610b1b57610b1a610aa7565b5b610b26848285610add565b509392505050565b600082601f830112610b4357610b42610905565b5b8135610b53848260208601610aec565b91505092915050565b600080600060608486031215610b7557610b74610812565b5b6000610b838682870161083d565b935050602084013567ffffffffffffffff811115610ba457610ba3610817565b5b610bb086828701610a30565b925050604084013567ffffffffffffffff811115610bd157610bd0610817565b5b610bdd86828701610b2e565b9150509250925092565b60008060408385031215610bfe57610bfd610812565b5b6000610c0c8582860161083d565b925050602083013567ffffffffffffffff811115610c2d57610c2c610817565b5b610c3985828601610a30565b9150509250929050565b7f4e487b7100000000000000000000000000000000000000000000000000000000600052601160045260246000fd5b6000610c7d8261081c565b9150610c888361081c565b925082821015610c9b57610c9a610c43565b5b828203905092915050565b7f4e487b7100000000000000000000000000000000000000000000000000000000600052603260045260246000fd5b6000610ce08261081c565b91507fffffffffffffffffffffffffffffffffffffffffffffffffffffffffffffffff821415610d1357610d12610c43565b5b600182019050919050565b6000819050919050565b6000610d43610d3e610d39846108a9565b610d1e565b6108a9565b9050919050565b6000610d5582610d28565b9050919050565b6000610d6782610d4a565b9050919050565b60008160601b9050919050565b6000610d8682610d6e565b9050919050565b6000610d9882610d7b565b9050919050565b610db0610dab82610d5c565b610d8d565b82525050565b6000819050919050565b610dd1610dcc8261081c565b610db6565b82525050565b6000610de38285610d9f565b601482019150610df38284610dc0565b6020820191508190509392505050565b600081905092915050565b7f19457468657265756d205369676e6564204d6573736167653a0a333200000000600082015250565b6000610e44601c83610e03565b9150610e4f82610e0e565b601c82019050919050565b6000819050919050565b6000819050919050565b610e7f610e7a82610e5a565b610e64565b82525050565b6000610e9082610e37565b9150610e9c8284610e6e565b60208201915081905092915050565b610eb481610e5a565b82525050565b600060ff82169050919050565b610ed081610eba565b82525050565b6000608082019050610eeb6000830187610eab565b610ef86020830186610ec7565b610f056040830185610eab565b610f126060830184610eab565b9594505050505056fea26469706673582212205f6263afa6b04286a997fc35137ff37ac76f5ed7ab478c02001c98a09e95267364736f6c634300080a0033",
  "immutableReferences": {},
  "source": "// SPDX-License-Identifier: GPL-3.0\npragma solidity >=0.7.0 <0.9.0;\n\ncontract Micropayments {\n    address payable public sender;      // The account sending payments.\n    address payable public recipient;   // The account receiving the payments.\n    uint256[5] public conditions;   //conditions for \n    uint256 public expiration;  // Timeout in case the recipient never closes.\n    uint256 public maxamount;   // maximum amount to be donated\n\n    constructor (address payable recipientAddress, uint256 duration, uint256[] memory cond, uint256 maxam)\n        payable\n    {\n        sender = payable(msg.sender);\n        recipient = recipientAddress;\n        expiration = block.timestamp + duration;\n        maxamount = maxam;\n        \n        for (uint i = 0; i < cond.length - 1; i++) {\n            conditions[i] = cond[i];\n        }\n\n\n    }\n\n    /// the recipient can close the channel at any time by presenting a\n    /// signed amount from the sender. the recipient will be sent that amount,\n    /// and the remainder will go back to the sender\n    function close(uint256 amount, uint256[] memory conds, bytes memory signature) external {\n        require(msg.sender == recipient);\n        require(isValidSignature(amount, signature));\n        require(amount <= maxamount);\n\n        for (uint i = 0; i < conds.length - 1; i++) {\n            require(conds[i] == conditions[i]);\n        }\n\n\n        recipient.transfer(amount);\n        selfdestruct(sender);\n    }\n\n    function simple_close(uint256 amount, uint256[] memory conds) external {\n        require(msg.sender == recipient);\n        // require(isValidSignature(amount, signature));\n        require(amount <= maxamount);\n\n        for (uint i = 0; i < conds.length - 1; i++) {\n            require(conds[i] == conditions[i]);\n        }\n\n\n        recipient.transfer(amount);\n        selfdestruct(sender);\n    }\n\n\n\n\n    /// the sender can extend the expiration at any time\n    function extend(uint256 newExpiration) external {\n        require(msg.sender == sender);\n        require(newExpiration > expiration);\n\n        expiration = newExpiration;\n    }\n\n /// the sender can change conditions at any time\n    function modifyConditions(uint256[] memory newconds) external {\n        require(msg.sender == sender);\n        \n        for (uint i = 0; i < newconds.length - 1; i++) {\n            conditions[i] = newconds[i];\n        }\n\n        \n    }\n\n    /// if the timeout is reached without the recipient closing the channel,\n    /// then the Ether is released back to the sender.\n    function claimTimeout() external {\n        require(block.timestamp >= expiration);\n        selfdestruct(sender);\n    }\n\n    function isValidSignature(uint256 amount, bytes memory signature)\n        internal\n        view\n        returns (bool)\n    {\n        bytes32 message = prefixed(keccak256(abi.encodePacked(this, amount)));\n\n        // check that the signature is from the payment sender\n        return recoverSigner(message, signature) == sender;\n    }\n\n    /// All functions below this are just taken from the chapter\n    /// 'creating and verifying signatures' chapter.\n\n    function splitSignature(bytes memory sig)\n        internal\n        pure\n        returns (uint8 v, bytes32 r, bytes32 s)\n    {\n        require(sig.length == 65);\n\n        assembly {\n            // first 32 bytes, after the length prefix\n            r := mload(add(sig, 32))\n            // second 32 bytes\n            s := mload(add(sig, 64))\n            // final byte (first byte of the next 32 bytes)\n            v := byte(0, mload(add(sig, 96)))\n        }\n\n        return (v, r, s);\n    }\n\n    function recoverSigner(bytes32 message, bytes memory sig)\n        internal\n        pure\n        returns (address)\n    {\n        (uint8 v, bytes32 r, bytes32 s) = splitSignature(sig);\n\n        return ecrecover(message, v, r, s);\n    }\n\n    /// builds a prefixed hash to mimic the behavior of eth_sign.\n    function prefixed(bytes32 hash) internal pure returns (bytes32) {\n        return keccak256(abi.encodePacked(\"\\x19Ethereum Signed Message:\\n32\", hash));\n    }\n}\n",
  "sourcePath": "/Users/scotthickmann/GitHub/Teamzero/packages/blockchain/contracts/Micropayments.sol",
  "compiler": {
    "name": "solc",
    "version": "0.8.10+commit.fc410830.Emscripten.clang"
  },
  "schemaVersion": "3.4.4",
  "updatedAt": "2022-02-20T09:38:39.633Z",
  "networkType": "ethereum",
  "devdoc": {
    "kind": "dev",
    "methods": {},
    "version": 1
  },
  "userdoc": {
    "kind": "user",
    "methods": {
      "claimTimeout()": {
        "notice": "if the timeout is reached without the recipient closing the channel, then the Ether is released back to the sender."
      },
      "close(uint256,uint256[],bytes)": {
        "notice": "the recipient can close the channel at any time by presenting a signed amount from the sender. the recipient will be sent that amount, and the remainder will go back to the sender"
      },
      "extend(uint256)": {
        "notice": "the sender can extend the expiration at any time"
      },
      "modifyConditions(uint256[])": {
        "notice": "the sender can change conditions at any time"
      }
    },
    "version": 1
  }
}