{
  "contractName": "Micropayments",
  "abi": [
    {
      "inputs": [
        {
          "internalType": "address payable",
          "name": "recipientAddress",
          "type": "address"
        },
        {
          "internalType": "uint256",
          "name": "duration",
          "type": "uint256"
        },
        {
          "internalType": "uint256[]",
          "name": "cond",
          "type": "uint256[]"
        },
        {
          "internalType": "uint256",
          "name": "maxam",
          "type": "uint256"
        }
      ],
      "stateMutability": "payable",
      "type": "constructor",
      "payable": true
    },
    {
      "inputs": [
        {
          "internalType": "uint256",
          "name": "",
          "type": "uint256"
        }
      ],
      "name": "conditions",
      "outputs": [
        {
          "internalType": "uint256",
          "name": "",
          "type": "uint256"
        }
      ],
      "stateMutability": "view",
      "type": "function",
      "constant": true
    },
    {
      "inputs": [],
      "name": "expiration",
      "outputs": [
        {
          "internalType": "uint256",
          "name": "",
          "type": "uint256"
        }
      ],
      "stateMutability": "view",
      "type": "function",
      "constant": true
    },
    {
      "inputs": [],
      "name": "maxamount",
      "outputs": [
        {
          "internalType": "uint256",
          "name": "",
          "type": "uint256"
        }
      ],
      "stateMutability": "view",
      "type": "function",
      "constant": true
    },
    {
      "inputs": [],
      "name": "recipient",
      "outputs": [
        {
          "internalType": "address payable",
          "name": "",
          "type": "address"
        }
      ],
      "stateMutability": "view",
      "type": "function",
      "constant": true
    },
    {
      "inputs": [],
      "name": "sender",
      "outputs": [
        {
          "internalType": "address payable",
          "name": "",
          "type": "address"
        }
      ],
      "stateMutability": "view",
      "type": "function",
      "constant": true
    },
    {
      "inputs": [
        {
          "internalType": "uint256",
          "name": "amount",
          "type": "uint256"
        },
        {
          "internalType": "uint256[]",
          "name": "conds",
          "type": "uint256[]"
        },
        {
          "internalType": "bytes",
          "name": "signature",
          "type": "bytes"
        }
      ],
      "name": "close",
      "outputs": [],
      "stateMutability": "nonpayable",
      "type": "function"
    },
    {
      "inputs": [
        {
          "internalType": "uint256[]",
          "name": "newconds",
          "type": "uint256[]"
        }
      ],
      "name": "extend",
      "outputs": [],
      "stateMutability": "nonpayable",
      "type": "function"
    },
    {
      "inputs": [
        {
          "internalType": "uint256",
          "name": "newExpiration",
          "type": "uint256"
        }
      ],
      "name": "extend",
      "outputs": [],
      "stateMutability": "nonpayable",
      "type": "function"
    },
    {
      "inputs": [],
      "name": "claimTimeout",
      "outputs": [],
      "stateMutability": "nonpayable",
      "type": "function"
    }
  ],
  "bytecode": "0x6080604052604051620012a5380380620012a5833981810160405281019062000029919062000364565b336000806101000a81548173ffffffffffffffffffffffffffffffffffffffff021916908373ffffffffffffffffffffffffffffffffffffffff16021790555083600160006101000a81548173ffffffffffffffffffffffffffffffffffffffff021916908373ffffffffffffffffffffffffffffffffffffffff1602179055508242620000b8919062000424565b6007819055508060088190555060005b60018351620000d8919062000481565b8110156200013057828181518110620000f657620000f5620004bc565b5b602002602001015160028260058110620001155762000114620004bc565b5b018190555080806200012790620004eb565b915050620000c8565b505050505062000539565b6000604051905090565b600080fd5b600080fd5b600073ffffffffffffffffffffffffffffffffffffffff82169050919050565b60006200017c826200014f565b9050919050565b6200018e816200016f565b81146200019a57600080fd5b50565b600081519050620001ae8162000183565b92915050565b6000819050919050565b620001c981620001b4565b8114620001d557600080fd5b50565b600081519050620001e981620001be565b92915050565b600080fd5b6000601f19601f8301169050919050565b7f4e487b7100000000000000000000000000000000000000000000000000000000600052604160045260246000fd5b6200023f82620001f4565b810181811067ffffffffffffffff8211171562000261576200026062000205565b5b80604052505050565b6000620002766200013b565b905062000284828262000234565b919050565b600067ffffffffffffffff821115620002a757620002a662000205565b5b602082029050602081019050919050565b600080fd5b6000620002d4620002ce8462000289565b6200026a565b90508083825260208201905060208402830185811115620002fa57620002f9620002b8565b5b835b81811015620003275780620003128882620001d8565b845260208401935050602081019050620002fc565b5050509392505050565b600082601f830112620003495762000348620001ef565b5b81516200035b848260208601620002bd565b91505092915050565b6000806000806080858703121562000381576200038062000145565b5b600062000391878288016200019d565b9450506020620003a487828801620001d8565b935050604085015167ffffffffffffffff811115620003c857620003c76200014a565b5b620003d68782880162000331565b9250506060620003e987828801620001d8565b91505092959194509250565b7f4e487b7100000000000000000000000000000000000000000000000000000000600052601160045260246000fd5b60006200043182620001b4565b91506200043e83620001b4565b9250827fffffffffffffffffffffffffffffffffffffffffffffffffffffffffffffffff03821115620004765762000475620003f5565b5b828201905092915050565b60006200048e82620001b4565b91506200049b83620001b4565b925082821015620004b157620004b0620003f5565b5b828203905092915050565b7f4e487b7100000000000000000000000000000000000000000000000000000000600052603260045260246000fd5b6000620004f882620001b4565b91507fffffffffffffffffffffffffffffffffffffffffffffffffffffffffffffffff8214156200052e576200052d620003f5565b5b600182019050919050565b610d5c80620005496000396000f3fe608060405234801561001057600080fd5b50600436106100935760003560e01c806367e404ce1161006657806367e404ce1461010e57806384214e561461012c5780638dca9e37146101485780639714378c14610164578063f06f56681461018057610093565b80630e1da6c31461009857806326c50007146100a25780634665096d146100d257806366d003ac146100f0575b600080fd5b6100a061019e565b005b6100bc60048036038101906100b791906106b9565b6101e6565b6040516100c991906106f5565b60405180910390f35b6100da610201565b6040516100e791906106f5565b60405180910390f35b6100f8610207565b6040516101059190610751565b60405180910390f35b61011661022d565b6040516101239190610751565b60405180910390f35b610146600480360381019061014191906108c5565b610251565b005b610162600480360381019061015d91906109c3565b61030c565b005b61017e600480360381019061017991906106b9565b610491565b005b610188610501565b60405161019591906106f5565b60405180910390f35b6007544210156101ad57600080fd5b60008054906101000a900473ffffffffffffffffffffffffffffffffffffffff1673ffffffffffffffffffffffffffffffffffffffff16ff5b600281600581106101f657600080fd5b016000915090505481565b60075481565b600160009054906101000a900473ffffffffffffffffffffffffffffffffffffffff1681565b60008054906101000a900473ffffffffffffffffffffffffffffffffffffffff1681565b60008054906101000a900473ffffffffffffffffffffffffffffffffffffffff1673ffffffffffffffffffffffffffffffffffffffff163373ffffffffffffffffffffffffffffffffffffffff16146102a957600080fd5b60005b600182516102ba9190610a7d565b811015610308578181815181106102d4576102d3610ab1565b5b6020026020010151600282600581106102f0576102ef610ab1565b5b0181905550808061030090610ae0565b9150506102ac565b5050565b600160009054906101000a900473ffffffffffffffffffffffffffffffffffffffff1673ffffffffffffffffffffffffffffffffffffffff163373ffffffffffffffffffffffffffffffffffffffff161461036657600080fd5b6103708382610507565b61037957600080fd5b60085483111561038857600080fd5b60005b600183516103999190610a7d565b8110156103ee57600281600581106103b4576103b3610ab1565b5b01548382815181106103c9576103c8610ab1565b5b6020026020010151146103db57600080fd5b80806103e690610ae0565b91505061038b565b50600160009054906101000a900473ffffffffffffffffffffffffffffffffffffffff1673ffffffffffffffffffffffffffffffffffffffff166108fc849081150290604051600060405180830381858888f19350505050158015610457573d6000803e3d6000fd5b5060008054906101000a900473ffffffffffffffffffffffffffffffffffffffff1673ffffffffffffffffffffffffffffffffffffffff16ff5b60008054906101000a900473ffffffffffffffffffffffffffffffffffffffff1673ffffffffffffffffffffffffffffffffffffffff163373ffffffffffffffffffffffffffffffffffffffff16146104e957600080fd5b60075481116104f757600080fd5b8060078190555050565b60085481565b60008061053b3085604051602001610520929190610be2565b6040516020818303038152906040528051906020012061059e565b905060008054906101000a900473ffffffffffffffffffffffffffffffffffffffff1673ffffffffffffffffffffffffffffffffffffffff1661057e82856105ce565b73ffffffffffffffffffffffffffffffffffffffff161491505092915050565b6000816040516020016105b19190610c90565b604051602081830303815290604052805190602001209050919050565b6000806000806105dd8561063d565b925092509250600186848484604051600081526020016040526040516106069493929190610ce1565b6020604051602081039080840390855afa158015610628573d6000803e3d6000fd5b50505060206040510351935050505092915050565b6000806000604184511461065057600080fd5b6020840151915060408401519050606084015160001a92509193909250565b6000604051905090565b600080fd5b600080fd5b6000819050919050565b61069681610683565b81146106a157600080fd5b50565b6000813590506106b38161068d565b92915050565b6000602082840312156106cf576106ce610679565b5b60006106dd848285016106a4565b91505092915050565b6106ef81610683565b82525050565b600060208201905061070a60008301846106e6565b92915050565b600073ffffffffffffffffffffffffffffffffffffffff82169050919050565b600061073b82610710565b9050919050565b61074b81610730565b82525050565b60006020820190506107666000830184610742565b92915050565b600080fd5b6000601f19601f8301169050919050565b7f4e487b7100000000000000000000000000000000000000000000000000000000600052604160045260246000fd5b6107ba82610771565b810181811067ffffffffffffffff821117156107d9576107d8610782565b5b80604052505050565b60006107ec61066f565b90506107f882826107b1565b919050565b600067ffffffffffffffff82111561081857610817610782565b5b602082029050602081019050919050565b600080fd5b600061084161083c846107fd565b6107e2565b9050808382526020820190506020840283018581111561086457610863610829565b5b835b8181101561088d578061087988826106a4565b845260208401935050602081019050610866565b5050509392505050565b600082601f8301126108ac576108ab61076c565b5b81356108bc84826020860161082e565b91505092915050565b6000602082840312156108db576108da610679565b5b600082013567ffffffffffffffff8111156108f9576108f861067e565b5b61090584828501610897565b91505092915050565b600080fd5b600067ffffffffffffffff82111561092e5761092d610782565b5b61093782610771565b9050602081019050919050565b82818337600083830152505050565b600061096661096184610913565b6107e2565b9050828152602081018484840111156109825761098161090e565b5b61098d848285610944565b509392505050565b600082601f8301126109aa576109a961076c565b5b81356109ba848260208601610953565b91505092915050565b6000806000606084860312156109dc576109db610679565b5b60006109ea868287016106a4565b935050602084013567ffffffffffffffff811115610a0b57610a0a61067e565b5b610a1786828701610897565b925050604084013567ffffffffffffffff811115610a3857610a3761067e565b5b610a4486828701610995565b9150509250925092565b7f4e487b7100000000000000000000000000000000000000000000000000000000600052601160045260246000fd5b6000610a8882610683565b9150610a9383610683565b925082821015610aa657610aa5610a4e565b5b828203905092915050565b7f4e487b7100000000000000000000000000000000000000000000000000000000600052603260045260246000fd5b6000610aeb82610683565b91507fffffffffffffffffffffffffffffffffffffffffffffffffffffffffffffffff821415610b1e57610b1d610a4e565b5b600182019050919050565b6000819050919050565b6000610b4e610b49610b4484610710565b610b29565b610710565b9050919050565b6000610b6082610b33565b9050919050565b6000610b7282610b55565b9050919050565b60008160601b9050919050565b6000610b9182610b79565b9050919050565b6000610ba382610b86565b9050919050565b610bbb610bb682610b67565b610b98565b82525050565b6000819050919050565b610bdc610bd782610683565b610bc1565b82525050565b6000610bee8285610baa565b601482019150610bfe8284610bcb565b6020820191508190509392505050565b600081905092915050565b7f19457468657265756d205369676e6564204d6573736167653a0a333200000000600082015250565b6000610c4f601c83610c0e565b9150610c5a82610c19565b601c82019050919050565b6000819050919050565b6000819050919050565b610c8a610c8582610c65565b610c6f565b82525050565b6000610c9b82610c42565b9150610ca78284610c79565b60208201915081905092915050565b610cbf81610c65565b82525050565b600060ff82169050919050565b610cdb81610cc5565b82525050565b6000608082019050610cf66000830187610cb6565b610d036020830186610cd2565b610d106040830185610cb6565b610d1d6060830184610cb6565b9594505050505056fea264697066735822122052a80c126f67e7a21e060e29a80d0e19c8da50d8e3ab63d5cba7e8e8d67e153a64736f6c634300080a0033",
  "immutableReferences": {},
  "source": "// SPDX-License-Identifier: GPL-3.0\npragma solidity >=0.7.0 <0.9.0;\ncontract Micropayments {\n    address payable public sender;      // The account sending payments.\n    address payable public recipient;   // The account receiving the payments.\n    uint256[5] public conditions;\n    uint256 public expiration;  // Timeout in case the recipient never closes.\n    uint256 public maxamount;\n\n    constructor (address payable recipientAddress, uint256 duration, uint256[] memory cond, uint256 maxam)\n        payable\n    {\n        sender = payable(msg.sender);\n        recipient = recipientAddress;\n        expiration = block.timestamp + duration;\n        maxamount = maxam;\n        \n        for (uint i = 0; i < cond.length - 1; i++) {\n            conditions[i] = cond[i];\n        }\n\n\n    }\n\n    /// the recipient can close the channel at any time by presenting a\n    /// signed amount from the sender. the recipient will be sent that amount,\n    /// and the remainder will go back to the sender\n    function close(uint256 amount, uint256[] memory conds, bytes memory signature) external {\n        require(msg.sender == recipient);\n        require(isValidSignature(amount, signature));\n        require(amount <= maxamount);\n\n        for (uint i = 0; i < conds.length - 1; i++) {\n            require(conds[i] == conditions[i]);\n        }\n\n\n        recipient.transfer(amount);\n        selfdestruct(sender);\n    }\n\n    /// the sender can extend the expiration at any time\n    function extend(uint256 newExpiration) external {\n        require(msg.sender == sender);\n        require(newExpiration > expiration);\n\n        expiration = newExpiration;\n    }\n\n    /// the sender can change conditions at any time\n    function extend(uint256[] memory newconds) external {\n        require(msg.sender == sender);\n        \n        for (uint i = 0; i < newconds.length - 1; i++) {\n            conditions[i] = newconds[i];\n        }\n\n        \n    }\n\n    /// if the timeout is reached without the recipient closing the channel,\n    /// then the Ether is released back to the sender.\n    function claimTimeout() external {\n        require(block.timestamp >= expiration);\n        selfdestruct(sender);\n    }\n\n    function isValidSignature(uint256 amount, bytes memory signature)\n        internal\n        view\n        returns (bool)\n    {\n        bytes32 message = prefixed(keccak256(abi.encodePacked(this, amount)));\n\n        // check that the signature is from the payment sender\n        return recoverSigner(message, signature) == sender;\n    }\n\n    /// All functions below this are just taken from the chapter\n    /// 'creating and verifying signatures' chapter.\n\n    function splitSignature(bytes memory sig)\n        internal\n        pure\n        returns (uint8 v, bytes32 r, bytes32 s)\n    {\n        require(sig.length == 65);\n\n        assembly {\n            // first 32 bytes, after the length prefix\n            r := mload(add(sig, 32))\n            // second 32 bytes\n            s := mload(add(sig, 64))\n            // final byte (first byte of the next 32 bytes)\n            v := byte(0, mload(add(sig, 96)))\n        }\n\n        return (v, r, s);\n    }\n\n    function recoverSigner(bytes32 message, bytes memory sig)\n        internal\n        pure\n        returns (address)\n    {\n        (uint8 v, bytes32 r, bytes32 s) = splitSignature(sig);\n\n        return ecrecover(message, v, r, s);\n    }\n\n    /// builds a prefixed hash to mimic the behavior of eth_sign.\n    function prefixed(bytes32 hash) internal pure returns (bytes32) {\n        return keccak256(abi.encodePacked(\"\\x19Ethereum Signed Message:\\n32\", hash));\n    }\n}\n",
  "sourcePath": "/Users/scotthickmann/GitHub/Teamzero/packages/blockchain/contracts/Micropayments.sol",
  "compiler": {
    "name": "solc",
    "version": "0.8.10+commit.fc410830.Emscripten.clang"
  },
  "schemaVersion": "3.4.4",
  "updatedAt": "2022-02-20T06:39:14.122Z",
  "networkType": "ethereum",
  "devdoc": {
    "kind": "dev",
    "methods": {},
    "version": 1
  },
  "userdoc": {
    "kind": "user",
    "methods": {
      "claimTimeout()": {
        "notice": "if the timeout is reached without the recipient closing the channel, then the Ether is released back to the sender."
      },
      "close(uint256,uint256[],bytes)": {
        "notice": "the recipient can close the channel at any time by presenting a signed amount from the sender. the recipient will be sent that amount, and the remainder will go back to the sender"
      },
      "extend(uint256)": {
        "notice": "the sender can extend the expiration at any time"
      },
      "extend(uint256[])": {
        "notice": "the sender can change conditions at any time"
      }
    },
    "version": 1
  }
}